:020000040000FA
:020000000C28CA
:0800080083120313311483126B
:10001000031308186C288E2883120313B10183126E
:100020000313AB0183120313AC0183120313A70163
:1000300083120313A80183120313A901831203136C
:10004000AA0183120313AD0183160313FF30850049
:10005000013086008701880106308900831203136E
:100060008501831203138601831203138701831210
:1000700003138801831203138901831603130F30BE
:100080009F008312031341309F00862138307C216A
:100090000C307C2102307C2101307C21831203133F
:1000A000851C5028862161208320612083206120C7
:1000B00083202508A6020319442A0318292A0E2A98
:1000C0008D2A83120313081488108621A520831219
:1000D0000313D0308B00BC298312031300308B0034
:1000E00002307C2101307C218312031309197D2801
:1000F000891801300030A0007F280230A000032AB8
:100100000A30A507080083120313881408108621FB
:10011000A52083120313D0308B00BC298312031354
:1001200000308B0002307C2101307C2183120313CC
:1001300009199F28891801300030A000A128023039
:10014000A000032A0A30A6070800831203134130D7
:100150009F0086211F151F19AB2803100430A4002F
:10016000831203131E08A300CC3023020318CD28EA
:100170000330A400993023020318D6280230A400CB
:10018000663023020318D9280130A400333023023B
:100190000318DC280030A400DF280818D028D32852
:1001A0002B186E2AB2292C186E2AB2292A186E2A08
:1001B000AE2929186E2AA92928186E2AA5292718D8
:1001C0006E2AA0298312031324088E21080001300F
:1001D0007C2102307C21313072212B30722132306F
:1001E00072213D3072213F307221C0307C2131308C
:1001F000722120307221323072212030722133304E
:100200007221E62801307C2102307C2136307221B7
:100210002D307221323072213D3072213F307221F7
:10022000C0307C213530722120307221343072216F
:10023000203072213230722102307C21E6280130D8
:100240007C2102307C21333072212A3072213230FD
:1002500072213D3072213F307221C0307C21363016
:1002600072212030722132307221203072213130DF
:100270007221E62801307C2102307C213830722145
:100280002F307221323072213D3072213F30722185
:10029000C0307C21353072212030722134307221FF
:1002A0002030722132307221E62801307C21023068
:1002B0007C21423072214F3072214E3072215530F4
:1002C0007221533072213D307221831203131E18A4
:1002D0002D301E1872213030831203132E07722125
:1002E000E62808008312031387008815081500000C
:1002F0000811081286210800831203138700881151
:100300000815000008110812862108008030AF008F
:10031000B001B00B8929AF0B8929080083120313A0
:10032000A4080319E7280130240203190229023026
:10033000240203191F290330240203193A295529DD
:100340000130A7000230AD00E2280130A800AD0066
:10035000E2280130A9000030AD00E2280130AA00F7
:10036000AD00E22801300818B629B929AB005122A6
:10037000E228AC005122E228A1010930A1002108A5
:100380003118C929D1218621A10BBF290030D121E3
:1003900086218312031331100A30D12108186C28EA
:1003A0008E28D6218312031386000800A200003095
:1003B000220203197E340130220203190C34023068
:1003C00022020319B6340330220203199E3404308A
:1003D00022020319CC34053022020319DA34063024
:1003E00022020319FA340730220203190E340830AE
:1003F00022020319FE34093022020319DE340A30C6
:1004000022020319003420082D020818082A0B2A9A
:100410000319822880280319A428A22801307C21EE
:1004200002307C21503072214C30722141307221D7
:10043000593072214530722152307221313072218F
:1004400057307221493072214E307221533072215F
:10045000080001307C2102307C21503072214C3068
:10046000722141307221593072214530722152304F
:1004700072213230722157307221493072214E3050
:10048000722153307221080001307C2102307C211E
:100490004430722152307221413072215730722122
:1004A0000800831203131E08AE00AE0C2E1BAE0C08
:1004B0002E1AAE0CAE1DAE0C0730AE052E08081875
:1004C000622A682A831603131E18A507A5020800CE
:1004D000831203131E18A607A602080001307C2110
:1004E00002307C21543072215230722159307221F5
:1004F00020307221413072214E3072214F307221F2
:1005000054307221483072214530722152307221AC
:0A0510002030722151307221A5281D
:00000001FF
